{
  "contractName": "cbt",
  "abi": [
    {
      "inputs": [],
      "payable": false,
      "stateMutability": "nonpayable",
      "type": "constructor"
    },
    {
      "constant": true,
      "inputs": [
        {
          "internalType": "uint256",
          "name": "",
          "type": "uint256"
        }
      ],
      "name": "tests",
      "outputs": [
        {
          "internalType": "uint256",
          "name": "sn",
          "type": "uint256"
        },
        {
          "internalType": "string",
          "name": "name",
          "type": "string"
        },
        {
          "internalType": "string",
          "name": "id",
          "type": "string"
        },
        {
          "internalType": "uint256",
          "name": "test_datetime",
          "type": "uint256"
        },
        {
          "internalType": "uint256",
          "name": "test_score",
          "type": "uint256"
        }
      ],
      "payable": false,
      "stateMutability": "view",
      "type": "function"
    },
    {
      "constant": true,
      "inputs": [],
      "name": "user_count",
      "outputs": [
        {
          "internalType": "uint256",
          "name": "",
          "type": "uint256"
        }
      ],
      "payable": false,
      "stateMutability": "view",
      "type": "function"
    },
    {
      "constant": false,
      "inputs": [
        {
          "internalType": "string",
          "name": "_name",
          "type": "string"
        },
        {
          "internalType": "string",
          "name": "_id",
          "type": "string"
        },
        {
          "internalType": "uint256",
          "name": "_test_score",
          "type": "uint256"
        }
      ],
      "name": "createTest",
      "outputs": [],
      "payable": false,
      "stateMutability": "nonpayable",
      "type": "function"
    }
  ],
  "bytecode": "0x60806040526000805534801561001457600080fd5b5061006d60405180604001604052806009815260200168737572616a206a686160b81b8152506040518060400160405280600d81526020016c323334376832666a323334363760981b815250607b61007260201b60201c565b6101a5565b6000805460019081018083556040805160a08101825282815260208082018981528284018990524260608401819052608084018990529487528582529290952081518155915180519395919492936100d193850192919091019061010a565b50604082015180516100ed91600284019160209091019061010a565b506060820151600382015560809091015160049091015550505050565b828054600181600116156101000203166002900490600052602060002090601f016020900481019282601f1061014b57805160ff1916838001178555610178565b82800160010185558215610178579182015b8281111561017857825182559160200191906001019061015d565b50610184929150610188565b5090565b6101a291905b80821115610184576000815560010161018e565b90565b610553806101b46000396000f3fe608060405234801561001057600080fd5b50600436106100415760003560e01c8063262adcd114610046578063bb805f6914610177578063de22c8d414610191575b600080fd5b6101756004803603606081101561005c57600080fd5b81019060208101813564010000000081111561007757600080fd5b82018360208201111561008957600080fd5b803590602001918460018302840111640100000000831117156100ab57600080fd5b91908080601f01602080910402602001604051908101604052809392919081815260200183838082843760009201919091525092959493602081019350359150506401000000008111156100fe57600080fd5b82018360208201111561011057600080fd5b8035906020019184600183028401116401000000008311171561013257600080fd5b91908080601f01602080910402602001604051908101604052809392919081815260200183838082843760009201919091525092955050913592506102a1915050565b005b61017f610339565b60408051918252519081900360200190f35b6101ae600480360360208110156101a757600080fd5b503561033f565b604051808681526020018060200180602001858152602001848152602001838103835287818151815260200191508051906020019080838360005b838110156102015781810151838201526020016101e9565b50505050905090810190601f16801561022e5780820380516001836020036101000a031916815260200191505b50838103825286518152865160209182019188019080838360005b83811015610261578181015183820152602001610249565b50505050905090810190601f16801561028e5780820380516001836020036101000a031916815260200191505b5097505050505050505060405180910390f35b6000805460019081018083556040805160a0810182528281526020808201898152828401899052426060840181905260808401899052948752858252929095208151815591518051939591949293610300938501929190910190610483565b506040820151805161031c916002840191602090910190610483565b506060820151600382015560809091015160049091015550505050565b60005481565b600160208181526000928352604092839020805481840180548651600296821615610100026000190190911695909504601f810185900485028601850190965285855290949193929091908301828280156103db5780601f106103b0576101008083540402835291602001916103db565b820191906000526020600020905b8154815290600101906020018083116103be57829003601f168201915b50505060028085018054604080516020601f600019610100600187161502019094169590950492830185900485028101850190915281815295969594509092509083018282801561046d5780601f106104425761010080835404028352916020019161046d565b820191906000526020600020905b81548152906001019060200180831161045057829003601f168201915b5050505050908060030154908060040154905085565b828054600181600116156101000203166002900490600052602060002090601f016020900481019282601f106104c457805160ff19168380011785556104f1565b828001600101855582156104f1579182015b828111156104f15782518255916020019190600101906104d6565b506104fd929150610501565b5090565b61051b91905b808211156104fd5760008155600101610507565b9056fea265627a7a72315820b126ceb760c3d2ebf9e603819847c6d7a8222422b2ff1ddc1f8a6d85de1d9e7e64736f6c63430005100032",
  "source": "pragma solidity ^0.5.0;\n\ncontract cbt{\n    uint public user_count = 0;\n\n    struct Test{\n        uint sn;\n        string name;\n        string id;\n        uint test_datetime;\n        uint test_score;\n    }\n\n    mapping(uint => Test) public tests;\n\n    constructor() public {\n        createTest(\"suraj jha\", \"2347h2fj23467\", 123);\n    }\n\n\n    function createTest(string memory _name, string memory _id, uint _test_score) public{\n        user_count++;\n        uint datetime_now = block.timestamp;\n        tests[user_count] = Test(user_count, _name, _id, datetime_now, _test_score);\n    }\n}",
  "sourcePath": "/home/suraj/bernhack/cbt-contract/contracts/CBT.sol",
  "compiler": {
    "name": "solc",
    "version": "0.5.16+commit.9c3226ce.Emscripten.clang"
  },
  "schemaVersion": "3.0.21",
  "updatedAt": "2020-01-25T01:17:52.122Z",
  "networkType": "ethereum",
  "devdoc": {
    "methods": {}
  },
  "userdoc": {
    "methods": {}
  }
}